:100000000C9476010C9493010C9493010C9493013D
:100010000C9493010C9493010C9493010C94930110
:100020000C9493010C9493010C9493010C94930100
:100030000C9493010C9493010C9493010C949301F0
:100040000C9493010C94080A0C9493010C94930162
:100050000C9493010C9493010C9493010C949301D0
:100060000C9493010C9493010C9493010C949301C0
:100070000C9493010C9493010C9493010C949301B0
:100080000C94CF0A0C9493010C9493010C9493015B
:100090000C9493010C9493010C9493010C94930190
:1000A0000C9493010C9493010C94930105000000AF
:1000B00000000500005F00000500070007000514B0
:1000C0007F147F1405242A7F2A12052313086462F3
:1000D00005364956205005080703000005001C227C
:1000E0004100050041221C000514083E08140508C3
:1000F000083E08080500B070000005080808080858
:10010000050060600000052010080402053E51490A
:10011000453E0500427F4000057249494946052198
:1001200041494D33051814127F10052745454539BF
:10013000053C4A494931054121110907053649491C
:10014000493605464949291E0500001400000500EE
:10015000403400000508142241000514141414143E
:10016000054122140800050201590906053E415DBA
:10017000594E057C1211127C057F49494936053ECE
:1001800041414122057F4141413E057F494949495D
:10019000057F09090909053E41415173057F08089A
:1001A000087F0500417F4100052040413F01057F58
:1001B00008142241057F40404040057F020C027F29
:1001C000057F0408107F053E4141413E057F090936
:1001D0000906053E4151215E057F0919294605267C
:1001E000494949320501017F0101053F4040403F37
:1001F000051F2040201F053F4038403F056314087D
:10020000146305030478040305615149454305005F
:100210007F414100050204081020050041417F0094
:1002200005040201020405404040404005070B0060
:100230000000052054547840057F28444438053890
:100240004444442805384444287F053854545418FD
:100250000500087E09020518A4A49C78057F0804FF
:1002600004780500447D4000052040403D00057FA6
:10027000102844000500417F4000057C0478047884
:10028000057C0804047805384444443805FC1824E7
:1002900024180518242418FC057C080404080548C3
:1002A000545454240504043F4424053C4040207C1D
:1002B000051C2040201C053C4030403C05442810D3
:1002C0002844054C9090907C054464544C440500AF
:1002D000083641000500007700000500413608009F
:1002E00005040204080405007F417F0011241FBE9D
:1002F000CFEFDAE0DEBFCDBF11E0A0E0B1E0E8E98A
:10030000FBE102C005900D92AC30B107D9F726E0B1
:10031000ACE0B1E001C01D92A03BB207E1F70E9442
:10032000F30A0C94CA0D0C9400001F93CF93DF9333
:10033000162FEA01880F0E94360B812F0E94670B4F
:100340008D2F0E94670B8C2F0E94670B0E945F0B02
:1003500080E0DF91CF911F910895CF93DF93D62F47
:10036000C82FCC0F8C2F0E94360B8D2F0E94670B4D
:100370000E945F0B81E08C0F0E945D0B0E94780B46
:10038000D82F0E94820BC82F0E945F0B8C2F90E009
:100390009D2BDF91CF910895CF93643008F5436092
:1003A000F901E42BAF01611102C0516409C0613051
:1003B00011F4516505C0623011F4516601C05167F6
:1003C000C82F506861E00E9495018FEF9CE701976C
:1003D000F1F700C0000060E08C2FCF910C94AD01CC
:1003E00080E090E0CF91089580FF02C0469A01C05E
:1003F000469881FF02C0479A01C0479882FF02C019
:100400008F9A01C08F9883FF02C08E9A01C08E9888
:1004100084FF02C08D9A01C08D9885FF02C08C9A1E
:1004200001C08C9886FF02C0899A01C0899887FF15
:1004300002C0889A01C088985C9A85E08A95F1F795
:1004400000005C9885E08A95F1F70000089581111D
:1004500003C02D982E9A0895813011F42E9801C072
:100460002E9A2D9A08950E94270280982F982C9AF0
:100470005C9885E08A95F1F700005C9A95E09A9582
:10048000F1F70000789902C080E001C080E85C9834
:100490009AE29A95F1F700C087FDEFCF2C98809AE9
:1004A0000895CF93DF93D82FC62F623011F0862F97
:1004B00004C080E00E94330281E00E9433028C2F4E
:1004C0000E9427022F982C988D2FDF91CF910C94AA
:1004D000F401CF93DF93C82FD62F623011F0862F0F
:1004E00004C080E00E94330281E00E9433028D2F1D
:1004F0000E9427022F9A2C988091A902813019F02E
:100500008C2F809501C08C2F0E94F4018091A7024E
:1005100091E0980F9093A702903439F48F5361E0E3
:100520008064DF91CF910C94510297FF03C08FE755
:100530008093A702DF91CF9108950F931F93CF93DC
:10054000C0E01092A70260E080E40E945102C093D4
:10055000A80262E08C2F869586958695886B0E940E
:10056000510200E010E061E0003408F460E08091A6
:10057000A802869586958695F80193E0EE0FFF1FF9
:100580009A95E1F7E055FD4FE80FF11D80810E943B
:1005900069020F5F1F4F0038110529F7C85FC0348B
:1005A00081F6CF911F910F91089587FF8093A70245
:1005B00008959091A802903410F48093A8020895B1
:1005C000CF93C62F0E94D5028C2FCF910C94D902C5
:1005D0003E9A3F9A879A869A859A849A819A809AB7
:1005E000269A259A279A549A249A569A2F982C98A4
:1005F0005C985E988FE19EE40197F1F700C00000DF
:100600005E9A9FEF20E782E0915020408040E1F722
:1006100000C0000062E08FE30E94510262E080ECC3
:100620000E94510260E080E00E94E002E7EAF2E00E
:1006300081E08283178216821582118210820895CA
:10064000883028F4880F880F880F8093A8020895B7
:10065000CF92DF92EF92FF92CF93DF93C62FD42FEA
:100660000E94E0022091A7028091A80286958695BB
:10067000869590E048E0249F90011124F901E0550F
:10068000FD4FE80FF91F5081C770C12CD12C7601A6
:10069000C39404C0CC0CDD1CEE1CFF1CCA95D2F721
:1006A000DF3F19F4452F4C2903C0C0944C2D45233E
:1006B00020553D4FF901E80FF91F4083DF91CF919D
:1006C000FF90EF90DF90CF9008950F931F93CF93FB
:1006D000DF93C82FD62F142F022F681710F4C62FC0
:1006E000D82FDC1738F0402F612F8C2F0E94280361
:1006F000CF5FF7CFDF91CF911F910F910895AF9208
:10070000BF92CF92DF92EF92FF920F931F93CF93FE
:10071000DF9387FDC2C047FDC0C0603408F0BDC094
:10072000203408F0BAC02F5F122F161B4F5FD42F52
:10073000D81B962F9770C62FC91BC12ED12C28E02D
:1007400030E0A901491B5109C416D5066CF42C19D7
:100750003D094FEF50E07A0102C0F594E7942A95E5
:10076000E2F72E2DA12E04C028E0A22EA91A2FEF09
:10077000B82EE22E01C0EE0C9A95EAF7FE2C6C2FF3
:100780000E94E0024091A7028091A802869586957A
:10079000869590E030E0E094632F640FD317B9F0B2
:1007A00028E0629FB0011124FB01E055FD4FE80FE6
:1007B000F91F20810F3F11F42F2901C02E21605510
:1007C0007D4FFB01E80FF91F20833F5FE5CF60936A
:1007D000A702AC1A2A2D2C0F822F90E0AC01495FA2
:1007E0005F4F4C155D0504F5C85F6C2F8B2D0E9483
:1007F000E0024091A7028091A80286958695869591
:1008000090E020E0322F340FD21759F0FC0158E06D
:10081000359FE00DF11D1124E055FD4F00832F5F42
:10082000F1CF3093A702D6CF2117B8F5C81AD90A4D
:100830008FEF90E001C0880FCA94EAF7182F109547
:1008400068E06C0F8B2D0E94E0026091A70220915E
:10085000A80226952695269530E050E0712F7095D8
:10086000852F860FD517B9F048E0849FC001112469
:10087000FC01E055FD4FE20FF31F40810F3F11F4E3
:10088000412B01C0472380559D4FFC01E20FF31F10
:1008900040835F5FE5CF8093A702DF91CF911F91E7
:1008A0000F91FF90EF90DF90CF90BF90AF900895A1
:1008B0000F93942F681718F4382F862F632F022F69
:1008C000262F492F682F892F0E947F030F910895AB
:1008D0008F929F92AF92BF92CF92DF92EF92FF9250
:1008E0000F931F93CF93DF93D82FC62F142F622F10
:1008F00087FD97C047FD95C0C03408F092C02034F2
:1009000008F08FC0841311C0202F482F8C2FDF9147
:10091000CF911F910F91FF90EF90DF90CF90BF90FC
:10092000AF909F908F900C945804C21311C0202F49
:100930004C2F612FDF91CF911F910F91FF90EF907E
:10094000DF90CF90BF90AF909F908F900C946503F5
:100950008C2F90E0C22ED12C2C1728F49C012C193E
:100960003D09690102C0C81AD90A8D2F90E0E12E15
:10097000F12C1D1770F49C012E193F0979012C15DB
:100980003D05ECF18C2FC62F682F8D2FD12F182FFE
:1009900005C0E81AF90AEC14FD043CF0A12EAD1ACA
:1009A000C61768F4962E9C1A0CC06C1798F5AC2EDE
:1009B000A61A8D2FD62F682F812F1C2FC82F9C2E63
:1009C000961ABA2CB694C61718F088248A9411C0C7
:1009D000882483940EC0402FEC14FD046CF46D2F1A
:1009E0008C2F0E942803B918B7FE02C0C80DBA0C9C
:1009F000DF5F1D1780F715C06C2F8D2FF2CF6C179E
:100A000048F4AC2EA61A8D2FD62F682F812F1C2FBD
:100A1000C82FC8CF812F162F682F8D2FDC2FC82FFE
:100A2000BDCFDF91CF911F910F91FF90EF90DF909D
:100A3000CF90BF90AF909F908F90089590E0E92F56
:100A4000E695E695E695F0E0E055FD4F20E08083E1
:100A50002F5F38962038D9F7985F903481F7089542
:100A600081E09091A902913009F480E081950C9485
:100A70001E0567FD1BC04034C8F42230B8F49093C3
:100A8000AB028093AA026093AC024093AD0250E0A7
:100A9000CA01019797FD079633E0959587953A959A
:100AA000E1F78F5F8093AE022093AF0208952F92FB
:100AB0003F924F925F926F927F928F929F92AF92EE
:100AC000BF92CF92DF92EF92FF920F931F93CF933B
:100AD000DF93CDB7DEB727970FB6F894DEBF0FBE12
:100AE000CDBF2091A7022F83D090A8022091AC0205
:100AF000E090AE022E9D900111242F5F3F4F805257
:100B0000829F3001839F700C1124E091AA02F09122
:100B1000AB02E60DF71D34913E83832F4F81840F86
:100B200087FF03C050E8541B5E838D2D8695869504
:100B300086959E2D980F993018F098E0E92EE81AC6
:100B40006D2D6770C62E8301D982F12C88E090E06C
:100B5000FC01E61BF109FD83EC83FE1409F47FC060
:100B600069818F810E94E0022801FFEF4F1A5F0A1E
:100B7000A090AA02B090AB022090AE02312C20913E
:100B8000AF022A834091A80246954695469550E0CB
:100B90003091A7023B834501840C951C80E09B812A
:100BA000980F292F30E0EE818E17B1F1F401649196
:100BB0000C2C01C0660F0A94EAF7962FFF2071F003
:100BC000F501E00FF11FE491F0E00C8002C0F59513
:100BD000E7950A94E2F79E2B020D131D6A8161309E
:100BE00061F4F901A3E0EE0FFF1FAA95E1F7E055CC
:100BF000FD4FE40FF51F6081962BD90173E0AA0F1A
:100C0000BB1F7A95E1F7A055BD4FA40FB51F9C936C
:100C10008F5F820C931CC3CF9093A7026A816623D7
:100C200061F0F90163E0EE0FFF1F6A95E1F7E0550F
:100C3000FD4FE40FF51F808101C080E093E0220F9B
:100C4000331F9A95E1F720553D4FF901E40FF51F49
:100C500080838981885F8983F39482017ECF6D2DA3
:100C600098E0F99E600D1124E1E0EF1508F053C003
:100C70008F810E94E002E090A7028091A8028695F1
:100C80008695869590E0B090AF026091AE0270E0DC
:100C90006F0C711CE091AA02F091AB02E60DF71DFA
:100CA000F12C48E0E49E90011124D901A055BD4FDC
:100CB000A80FB91F08E010E00C1911094E81F416B5
:100CC00099F0CC90449150E0002E02C05595479584
:100CD0000A94E2F74C2951E0B51201C04C294C931B
:100CE000F394E60FF71FEACFBB2059F051E0F9016A
:100CF000E055FD4FE80FF91F4081B51619F04095FA
:100D000001C040E0E394E092A70220553D4FF90175
:100D1000E80FF91F40838F818F5F6D2D9E81890FB2
:100D200027960FB6F894DEBF0FBECDBFDF91CF91EF
:100D30001F910F91FF90EF90DF90CF90BF90AF90F9
:100D40009F908F907F906F905F904F903F902F90EB
:100D50000C94E002CF93DF93EC018991882369F032
:100D60009091A7022091AC0230E0290F311D20386C
:100D700031051CF40E945705F0CFDF91CF91089503
:100D80000F931F93CF93DF93CDB7DEB72C970FB69A
:100D9000F894DEBF0FBECDBF6115710581059105C9
:100DA00021F480E30E945705E3C0611571058105B8
:100DB00000E8900709F4DCC0FE0131962CE0DF0169
:100DC0001D922A95E9F720E3298397FF0BC08B0139
:100DD0009C0144275527BA01401B510B620B730B32
:100DE00091E003C0AB01BC0190E080E321E0280F5B
:100DF00041301AEC51071AE961071BE371072CF027
:100E00005A5C6A497B43822FF1CF8A8380E321E0D9
:100E1000280F411531EE530735EF630735E07307AF
:100E20002CF0515E654F7540822FF1CF8B8380E3AC
:100E300021E0280F4038A6E95A07A8E96A0771059A
:100E400034F04058564968497109822FF1CF8C839C
:100E500080E321E0280F4034B2E45B07BFE06B077A
:100E6000710534F0405452446F407109822FF1CF24
:100E70008D8380E321E0280F403A06E8500701E027
:100E80006007710534F0405A564861407109822F5D
:100E9000F1CF8E8380E321E0280F403117E2510724
:100EA0006105710534F04051574261097109822F83
:100EB000F2CF8F8380E321E0280F483E33E05307D1
:100EC0006105710534F0485E534061097109822F54
:100ED000F2CF888780E321E0280F44365105610571
:100EE000710534F04456510961097109822FF3CF1D
:100EF000898780E321E0280F4A305105610571059B
:100F000034F04A50510961097109822FF3CF8A8761
:100F100077FF03C040E050E0BA01405D4B8780E0BE
:100F2000DF01A80FB11D2C91203311F48F5FF8CF92
:100F3000992331F08150DF01A80FB11D9DE29C93F0
:100F40003AE0381B20E090E0BF01620F711DAB0159
:100F5000480F591FDA014C91DB014C932F5F321778
:100F600098F7DF01A20FB11D1C92CF010E94AA06C3
:100F70002C960FB6F894DEBF0FBECDBFDF91CF9198
:100F80001F910F9108958F929F92AF92BF92CF922F
:100F9000DF92EF92FF926B017C0149015A0120E040
:100FA00030E0A9010E94F90B811111C080E30E9479
:100FB00057058EE20E94570580E3FF90EF90DF9087
:100FC000CF90BF90AF909F908F900C94570520E0EA
:100FD00030E040E05FECC701B6010E94580D87FD8C
:100FE00047C020E030E040E05FE4C701B6010E9466
:100FF000F90B87FF3DC020E030E0A901C701B60131
:101000000E94F90B87FF07C0F7FAF094F7F8F09405
:101010008DE20E945705C701B6010E94700C0E9424
:10102000C0068EE20E945705C701B6010E94770CE8
:101030000E94A60C9B01AC01C701B6010E948C0B5B
:101040006B017C01C501B4010E94A60C9B01AC019F
:10105000C701B6010E945D0D0E94700CFF90EF90D9
:10106000DF90CF90BF90AF909F908F900C94C00670
:10107000FF90EF90DF90CF90BF90AF909F908F90B8
:1010800008952091A0028091010130E090E0019745
:101090002817390719F41092A00217C020910001F7
:1010A0008091010130E090E001972817390741F461
:1010B000109200018091A0028F5F8093A00208959A
:1010C0008091A0028F5F8093A002809100018F5FCA
:1010D0008093000108956D9A769A08959EB180E4F8
:1010E00089278EB908954F925F926F927F928F9267
:1010F0009F92AF92BF92CF92DF92EF92FF920F93A7
:101100001F93CF93DF93CDB7DEB72A970FB6F8942E
:10111000DEBF0FBECDBF182F8091A00289870E942D
:101120006E089EE09A87812C912C5401812F90E0CB
:10113000A0E0B0E089839A83AB83BC838D839E83D8
:10114000AF83B8870A85015080910001998598176F
:1011500009F470C09985E92FF0E0EE0FFF1FE45FFE
:10116000FE4F6081718180E090E00E94A60C20E03B
:1011700030E048EC52E40E94FE0B6B017C019B01C5
:10118000AC01C501B4010E948D0B4B015C0169816A
:101190007A818B819C810E94A60C9B01AC01C701C6
:1011A000B6010E94580D19851F5F1816CCF16D818C
:1011B0007E818F8198850E94A80C2B013C019B01A8
:1011C000AC0160E070E084E592EC0E94FE0BA701A8
:1011D00096010E945D0D20E030E044E552E40E945B
:1011E0008D0B0E94770C6987663398F42AE037EDFF
:1011F00043EA5CE3C301B2010E945D0D9B01AC01B7
:10120000C701B6010E94F90B87FF05C0B5E3B98796
:1012100002C0A5E3A9874FEF6985802F0E942803AC
:10122000198780910101181708F019868A858F5F48
:101230008A8788CF20E030E046EE52E4C501B40151
:101240000E94FE0B60939C0270939D0280939E020D
:1012500090939F022A960FB6F894DEBF0FBECDBFC3
:10126000DF91CF911F910F91FF90EF90DF90CF9082
:10127000BF90AF909F908F907F906F905F904F90B6
:101280000C944108FF920F931F93CF93DF93F82E96
:10129000162FEA010E9430050FEF26E34CE060E0D4
:1012A0008CE00E94680426E34FE766E38DE00E942D
:1012B000680480E00E94D50287E00E94200380E35A
:1012C0000E94570580E00E94D50280E00E94200322
:1012D0006F2D70E080E090E00E94C0068AE00E94DE
:1012E000D50287E00E94200383E091E00E94AA06D5
:1012F0008BE10E94D50287E00E942003612F70E0FD
:1013000080E090E00E94C00688E20E94D50287E05B
:101310000E94200387E091E00E94AA0681E40E94D7
:10132000D50287E00E94200360919C0270919D028B
:1013300080919E0290919F022AE030E040E050E0D0
:101340000E94C3078AE50E94D50287E00E9420031D
:10135000BE0180E090E00E94A60C26EA3BE944E44E
:1013600059E30E945D0D2EE03EE448E650E40E9401
:101370005D0D28EE33E040E050E00E94C30788E7AF
:101380000E94D50287E00E94200386E50E9457054F
:101390008F2D0E947308DF91CF911F910F91FF90C5
:1013A0000C949D028AB18F758AB9089585B78068BB
:1013B00085BF85B7806885BF08958CE080938100E4
:1013C00080E598E1909389008093880082E0809383
:1013D0006F0008958CE08093910088E391E09093F2
:1013E00099008093980082E08093710008954D9B4E
:1013F00006C09091A5028FED89278093A5024F9B8F
:1014000006C09091A5028FE789278093A5020895D1
:101410001F920F920FB60F9211242F933F934F9369
:101420005F936F937F938F939F93AF93BF93CF936C
:10143000DF93EF93FF930E94F70920E030E040E252
:1014400060E088E40E94CC019093A4028093A30200
:1014500020E030E040E261E088E40E94CC0190931B
:10146000A2028093A102209100018091010130E04D
:1014700090E001972817390719F56091A102709142
:10148000A202072E000C880B990B0E94A80C26EADA
:101490003BE944E459E30E945D0D2EE03EE448E65A
:1014A00050E40E945D0D20E030E048EC52E40E94E0
:1014B0005D0D0E94770C70930D0160930C0127C0A5
:1014C000C09100016091A1027091A202D0E0CC0F06
:1014D000DD1FC25FDE4F072E000C880B990B0E94A8
:1014E000A80C26EA3BE944E459E30E945D0D2EE096
:1014F0003EE448E650E40E945D0D20E030E048EC18
:1015000052E40E945D0D0E94770C798368834091BC
:10151000A1025091A2026091A602809102010E9454
:101520004209FF91EF91DF91CF91BF91AF919F91D0
:101530008F917F916F915F914F913F912F910F907C
:101540000FBE0F901F9018954F9910C08091A50263
:1015500087FD0CC08091A50280688093A5028091D0
:10156000A6028F5F8093A6020E946E084D9916C056
:101570008091A50285FD12C08091A50280628093B2
:10158000A50280910201843121F0809102018B5FDC
:1015900001C085E0809302010C946E0808951F92AB
:1015A0000F920FB60F9211242F933F934F935F9397
:1015B0006F937F938F939F93AF93BF93EF93FF931B
:1015C0000E94A40AFF91EF91BF91AF919F918F91DB
:1015D0007F916F915F914F913F912F910F900FBE2F
:1015E0000F901F9018950E94D6090E94E8020E9451
:1015F000300521E048E065E08CEA90E00E94390582
:101600000E949D020E946B080E94D2090E94DD097F
:101610000E94EA090E940E0B7894FFCF1092B90045
:1016200088E48093B800089594EA9093BC00909168
:10163000BC0097FFFCCF9091B900987F983021F0C3
:10164000903111F081E008958093BB0084E880938D
:10165000BC008091BC0087FFFCCF8091B900887FDF
:10166000883111F0803471F780E0089524EA34E87D
:1016700044E92093BC009091BC0097FFFCCF90916F
:10168000B900987F983011F0903199F78093BB00A2
:101690003093BC009091BC0097FFFCCF9091B900B3
:1016A000987F903211F0983539F44093BC009091B6
:1016B000BC0094FDFCCFDDCF08950C94140B84E99D
:1016C0008093BC008091BC0084FDFCCF0895809382
:1016D000BB0084E88093BC008091BC0087FFFCCFF6
:1016E0009091B900987F81E0983209F480E00895E4
:1016F00084EC8093BC008091BC0087FFFCCF80917C
:10170000BB00089584E88093BC008091BC0087FFF3
:10171000FCCF8091BB0008955058BB27AA270E9498
:10172000A40B0C941E0D0E94100D38F00E94170D92
:1017300020F039F49F3F19F426F40C940D0D0EF4AB
:10174000E095E7FB0C94070DE92F0E942F0D58F34D
:10175000BA17620773078407950720F079F4A6F596
:101760000C94510D0EF4E0950B2EBA2FA02D0B0109
:10177000B90190010C01CA01A0011124FF27591BD6
:1017800099F0593F50F4503E68F11A16F040A22FDC
:10179000232F342F4427585FF3CF4695379527954D
:1017A000A795F0405395C9F77EF41F16BA0B620B4C
:1017B000730B840BBAF09150A1F0FF0FBB1F661F93
:1017C000771F881FC2F70EC0BA0F621F731F841FD6
:1017D00048F4879577956795B795F7959E3F08F0FC
:1017E000B0CF9395880F08F09927EE0F97958795BE
:1017F00008950E94E30C08F481E008950E94120C01
:101800000C941E0D0E94170D58F00E94100D40F010
:1018100029F45F3F29F00C94070D51110C94520DDF
:101820000C940D0D0E942F0D68F39923B1F35523ED
:1018300091F3951B550BBB27AA27621773078407E3
:1018400038F09F5F5F4F220F331F441FAA1FA9F379
:1018500035D00E2E3AF0E0E832D091505040E69567
:10186000001CCAF72BD0FE2F29D0660F771F881FC8
:10187000BB1F261737074807AB07B0E809F0BB0BBB
:10188000802DBF01FF2793585F4F3AF09E3F5105CF
:1018900078F00C94070D0C94520D5F3FE4F3983EE2
:1018A000D4F3869577956795B795F7959F5FC9F7B8
:1018B000880F911D9695879597F90895E1E0660F39
:1018C000771F881FBB1F621773078407BA0720F0B2
:1018D000621B730B840BBA0BEE1F88F7E09508951B
:1018E0000E94770C6894B1110C94520D08950E94D7
:1018F000370D88F09F5798F0B92F9927B751B0F05E
:10190000E1F0660F771F881F991F1AF0BA95C9F783
:1019100014C0B13091F00E94510DB1E008950C94C3
:10192000510D672F782F8827B85F39F0B93FCCF376
:10193000869577956795B395D9F73EF49095809500
:10194000709561957F4F8F4F9F4F0895E89409C020
:1019500097FB3EF490958095709561957F4F8F4FE2
:101960009F4F9923A9F0F92F96E9BB279395F695F8
:10197000879577956795B795F111F8CFFAF4BB0F76
:1019800011F460FF1BC06F5F7F4F8F4F9F4F16C0DA
:10199000882311F096E911C0772321F09EE8872F64
:1019A000762F05C0662371F096E8862F70E060E020
:1019B0002AF09A95660F771F881FDAF7880F969599
:1019C000879597F90895990F0008550FAA0BE0E83D
:1019D000FEEF16161706E807F907C0F012161306F1
:1019E000E407F50798F0621B730B840B950B39F431
:1019F0000A2661F0232B242B252B21F408950A2697
:101A000009F4A140A6958FEF811D811D089597F9D6
:101A10009F6780E870E060E008959FEF80EC089594
:101A200000240A94161617061806090608950024BD
:101A30000A9412161306140605060895092E039437
:101A4000000C11F4882352F0BB0F40F4BF2B11F4AB
:101A500060FF04C06F5F7F4F8F4F9F4F089557FD0A
:101A60009058440F551F59F05F3F71F04795880F0C
:101A700097FB991F61F09F3F79F0879508951216A3
:101A800013061406551FF2CF4695F1DF08C016164F
:101A900017061806991FF1CF869571056105089400
:101AA0000895E894BB2766277727CB0197F9089517
:101AB0000E94E30C08F48FEF08950E94700D0C94BF
:101AC0001E0D0E94100D38F00E94170D20F0952376
:101AD00011F00C94070D0C940D0D11240C94520D63
:101AE0000E942F0D70F3959FC1F3950F50E0551F85
:101AF000629FF001729FBB27F00DB11D639FAA2763
:101B0000F00DB11DAA1F649F6627B00DA11D661FB1
:101B1000829F2227B00DA11D621F739FB00DA11DD2
:101B2000621F839FA00D611D221F749F3327A00D8C
:101B3000611D231F849F600D211D822F762F6A2F28
:101B400011249F5750409AF0F1F088234AF0EE0F8D
:101B5000FF1FBB1F661F771F881F91505040A9F7BA
:101B60009E3F510580F00C94070D0C94520D5F3F81
:101B7000E4F3983ED4F3869577956795B795F795F6
:101B8000E7959F5FC1F7FE2B880F911D969587956E
:081B900097F90895F894FFCFC6
:0C1B980072C80549443A004156473A0023
:00000001FF
